:020000040800F2
:1000000000500020312A00080927000811270008A5
:1000100019270008212700082927000800000000F0
:100020000000000000000000000000003127000870
:100030003D27000800000000492700085527000858
:10004000792A0008792A0008792A0008792A000804
:10005000792A0008792A0008792A0008792A0008F4
:10006000792A0008792A0008792A000861270008FF
:10007000792A0008792A0008792A0008792A0008D4
:1000800075270008892700089D270008792A00089D
:10009000792A0008792A0008792A0008792A0008B4
:1000A000792A0008792A0008792A0008792A0008A4
:1000B000B1270008C5270008F5270008792A00089D
:1000C000792A0008792A0008792A0008792A000884
:1000D000792A0008792A000831280008792A0008BE
:1000E000792A0008792A0008792A0008000000000F
:1000F0000000000000000000000000000000000000
:0C01000000000000000000005FF808F1A3
:10010C0010B5054C237833B9044B13B10448AFF345
:10011C0000800123237010BD180000200000000097
:10012C007873000808B5034B1BB103490348AFF3C0
:10013C00008008BD000000001C000020787300083F
:10014C0080F0004002E000BF81F0004142001FBF80
:10015C005FEA410392EA030F7FEA226C7FEA236C89
:10016C006AD04FEA1262D2EB1363C1BFD21841407E
:10017C0048404140B8BF5B42192B88BF704710F014
:10018C00004F40F4000020F07F4018BF404211F0B7
:10019C00004F41F4000121F07F4118BF494292EA1F
:1001AC00030F3FD0A2F1010241FA03FC10EB0C004B
:1001BC00C3F1200301FA03F100F0004302D54942D8
:1001CC0060EB4000B0F5000F13D3B0F1807F06D385
:1001DC0040084FEA310102F10102FE2A51D2B1F17D
:1001EC00004F40EBC25008BF20F0010040EA030072
:1001FC007047490040EB0000013A28BFB0F5000FF2
:10020C00EDD2B0FA80FCACF1080CB2EB0C0200FAA7
:10021C000CF0AABF00EBC25052421843BCBFD040F6
:10022C001843704792F0000F81F4000106BF80F470
:10023C0000000132013BB5E74FEA41037FEA226C33
:10024C0018BF7FEA236C21D092EA030F04D092F0FE
:10025C00000F08BF0846704790EA010F1CBF002032
:10026C00704712F07F4F04D1400028BF40F000408F
:10027C00704712F100723CBF00F50000704700F0AF
:10028C00004343F0FE4040F4000070477FEA2262D6
:10029C0016BF08467FEA23630146420206BF5FEAA7
:1002AC00412390EA010F40F4800070474FF00003A7
:1002BC0004E000BF10F0004348BF40425FEA000C6E
:1002CC0008BF704743F0964301464FF000001CE016
:1002DC0050EA010208BF70474FF000030AE000BF6C
:1002EC0050EA010208BF704711F0004302D54042AA
:1002FC0061EB41015FEA010C02BF8446014600201C
:10030C0043F0B64308BFA3F18053A3F50003BCFA36
:10031C008CF2083AA3EBC25310DB01FA02FC6344E3
:10032C0000FA02FCC2F12002BCF1004F20FA02F2EA
:10033C0043EB020008BF20F00100704702F12002DD
:10034C0001FA02FCC2F1200250EA4C0021FA02F23E
:10035C0043EB020008BF20EADC7070474FF0FF0C43
:10036C001CEAD0521EBF1CEAD15392EA0C0F93EA3E
:10037C000C0F6FD01A4480EA010C400218BF5FEAE0
:10038C0041211ED04FF0006343EA501043EA511153
:10039C00A0FB01310CF00040B1F5000F3EBF49004D
:1003AC0041EAD3715B0040EA010062F17F02FD2A51
:1003BC001DD8B3F1004F40EBC25008BF20F0010034
:1003CC00704790F0000F0CF0004C08BF49024CEA4B
:1003DC00502040EA51207F3AC2BFD2F1FF0340EADD
:1003EC00C250704740F400004FF00003013A5DDC4E
:1003FC0012F1190FDCBF00F000407047C2F100028F
:10040C00410021FA02F1C2F1200200FA02FC5FEA7B
:10041C00310040F1000053EA4C0308BF20EADC70C5
:10042C00704792F0000F00F0004C02BF400010F437
:10043C00000F013AF9D040EA0C0093F0000F01F0E4
:10044C00004C02BF490011F4000F013BF9D041EA06
:10045C000C018FE70CEAD15392EA0C0F18BF93EA08
:10046C000C0F0AD030F0004C18BF31F0004CD8D132
:10047C0080EA010000F00040704790F0000F17BFB9
:10048C0090F0004F084691F0000F91F0004F14D0FF
:10049C0092EA0C0F01D142020FD193EA0C0F03D157
:1004AC004B0218BF084608D180EA010000F000405A
:1004BC0040F0FE4040F40000704740F0FE4040F435
:1004CC00400070474FF0FF0C1CEAD0521EBF1CEAD4
:1004DC00D15392EA0C0F93EA0C0F69D0A2EB0302F2
:1004EC0080EA010C49024FEA402037D04FF080538C
:1004FC0043EA111143EA10130CF000408B4238BF51
:10050C005B0042F17D024FF4000C8B4224BF5B1A5E
:10051C0040EA0C00B3EB510F24BFA3EB510340EAAC
:10052C005C00B3EB910F24BFA3EB910340EA9C005A
:10053C00B3EBD10F24BFA3EBD10340EADC001B01CA
:10054C0018BF5FEA1C1CE0D1FD2A3FF650AF8B426E
:10055C0040EBC25008BF20F0010070470CF0004C7B
:10056C004CEA50207F32C2BFD2F1FF0340EAC250A6
:10057C00704740F400004FF00003013A37E792F067
:10058C00000F00F0004C02BF400010F4000F013AC5
:10059C00F9D040EA0C0093F0000F01F0004C02BFC0
:1005AC00490011F4000F013BF9D041EA0C0195E729
:1005BC000CEAD15392EA0C0F08D142027FF47DAFC2
:1005CC0093EA0C0F7FF470AF084676E793EA0C0FB2
:1005DC0004D14B023FF44CAF08466EE730F0004CB0
:1005EC0018BF31F0004CCAD130F000427FF45CAF40
:1005FC0031F000437FF43CAF5FE700BF42000ED206
:10060C00B2F1FE4F0BD34FF09E03B3EB126209D441
:10061C004FEA002343F0004323FA02F070474FF0F7
:10062C000000704712F1610F01D1420202D14FF06C
:10063C00FF3070474FF00000704700BF80B584B0AA
:10064C0000AF3B4600221A605A609A600023FB817F
:10065C00204802F009FE11233B6001237B60072335
:10066C00BB603B4619461B4802F028FF0346002B93
:10067C0012D1184802F03AFB0A21164802F010FC7D
:10068C000346002B04D1134802F03AFE0346FB81CB
:10069C00104802F0D9FB00E000BF0F4B1B78052B74
:1006AC0002D105233B6001E006233B6001237B6004
:1006BC000523BB603B461946064802F0FFFE142298
:1006CC000649044802F0F2FCFB8918461037BD4677
:1006DC0080BD00BF840800200100002034000020F1
:1006EC0080B582B000AF184B1B6847F230511846EA
:1006FC0000F0E0FC0346002B20D0FFF79FFF0346E1
:10070C00FB80FB88642B19D9FB8840F6FE72934260
:10071C0014D8FB881846FFF7C9FD034619460B4849
:10072C00FFF7D0FE03461A46094B1A6000F0B0FCE6
:10073C000346054A1360074AFB885383044B1B6826
:10074C0018460837BD4680BD90000020A0F6954A9B
:10075C0004000020A80A002080B584B000AF3B46FE
:10076C0000221A605A609A60284B1B78002B02D02A
:10077C00274802F079FD274B00221A60264B0022F5
:10078C001A70264B00221A70254B00221A70254B2A
:10079C009B8A002B01D1052200E00622224B1A7005
:1007AC00214B1B78052B01D1052300E006233B6070
:1007BC0001237B600523BB603B461946144802F0BD
:1007CC007DFE0346002B01D000F0F4FF0023FB60FC
:1007DC0007E0164AFB68002122F81310FB6801336E
:1007EC00FB60FB68132BF4DD14221049084802F05F
:1007FC005DFC0346002B01D000F0DCFF034B012213
:10080C001A7000BF1037BD4680BD00BF8D000020A0
:10081C00840800205C000020880000208900002053
:10082C008C000020A80A00200100002034000020C9
:10083C0080B582B000AF0346FB80FB88042B02D846
:10084C000523FB8004E0FB881E2B01D91E23FB80B3
:10085C00114AFB88D382114804F0FAFFFB885A1E18
:10086C000E4B1B68DA62FB88013B1A460B4BDA60B5
:10087C000A4B1B6800225A62094B01225A61074835
:10088C0004F094FF0346002B01D000F093FF00BF4F
:10089C000837BD4680BD00BFA80A002040090020D3
:1008AC000004004080B487B000AF5B4B1B8BFB7522
:1008BC00FB7D142B01D91423FB75584B1B78FA7D47
:1008CC009A421DD0564B1B78002B19D0554B002249
:1008DC001A60554B00221A70544B00221A704F4A62
:1008EC00FB7D137000233B6107E0514A3B690021FB
:1008FC0022F813103B6901333B613B69132BF4DD88
:10090C00EFF310833B603B68FB6072B600BF494B52
:10091C001B887B81FB687B607B6883F3108800BF3E
:10092C007B89B3F5805F71D23C4B1B78002B06D1D1
:10093C00414A7B8913803A4B01221A7067E03B4B8A
:10094C001A78364B1B789A422BD2374B1B781946A8
:10095C00374A7B8922F811307A89324B1B68134451
:10096C00304A1360314B1B780133DAB22F4B1A70BB
:10097C002D4B1B780133DAB22B4B1A702B4B1A7898
:10098C00264B1B789A4202D1274B00221A70254B1A
:10099C001B68264A1278B3FBF2F39AB2264B1A80E4
:1009AC002BE0214B1B781A46214B33F812303B813C
:1009BC001D4B1B7819461E4A7B8922F81130194BA6
:1009CC001A683B89D21A7B891344164A1360164B5A
:1009DC001B780133114A127893FBF2F101FB02F2FE
:1009EC009B1ADAB2104B1A700E4B1B680B4A12781A
:1009FC00B3FBF2F39AB2104B1A800F4B1A88064BCA
:100A0C00A3F8C820064B01221A7000E000BF1C3767
:100A1C00BD4680BC704700BFA80A00200000002023
:100A2C008C0000205C000020880000208900002041
:100A3C0060000020340000208A00002080B485B0C3
:100A4C0000AFEFF310833B603B68FB6072B600BFF6
:100A5C00074B1B887B81FB687B607B6883F310886A
:100A6C0000BF7B8918461437BD4680BC704700BF59
:100A7C003400002080B500AF074B1B7883F00103D6
:100A8C00DBB2002B03D0FFF7D9FF034601E0034B89
:100A9C001B88184680BD00BF8C0000208A000020F7
:100AAC0090B587B000AFFFF7E5FF03467B82FFF7F9
:100ABC0017FEF8607C8AF868FFF7A0FD034603FB7D
:100ACC0004F2294BA3FB0213D21A52081344DB0A7B
:100ADC00BB60264B1B78052B20D1BB6841F28832BA
:100AEC0002FB03F39B08224AA2FB03235B097B60F6
:100AFC00204BB3F890311A467B6802FB03F31E4A75
:100B0C0082FB03129211DB17D31A7B61194BB3F8DA
:100B1C0092311A467B6913447B611FE0BA68134615
:100B2C009B0013449B009B08114AA2FB03235B0907
:100B3C007B60104BB3F894311A467B6802FB03F3CD
:100B4C000D4A82FB03129211DB17D31A7B61094BFE
:100B5C00B3F896311A467B6913447B617B6918465E
:100B6C001C37BD4690BD00BF0101100001000020E4
:100B7C009F00EE09A80A0020D34D621080B582B008
:100B8C0000AF78607B681B68074A934207D178688E
:100B9C0002F06AFB14220549786802F087FA00BF5C
:100BAC000837BD4680BD00BF002401403400002042
:100BBC0080B500AF054A064B1046194640F2EA33A1
:100BCC001A4606F0C5FB00BF80BD00BF980400208C
:100BDC00A80A002090B583B000AF2B4B7B6000F0CF
:100BEC00F9F90346002B05D000F07EF9274B0122C2
:100BFC001A7045E07B681B683B603B68244A934253
:100C0C0007D000F071F9214B01221A7000F048F85E
:100C1C0036E072B600BF4FF47D7279681D4806F05D
:100C2C0097FB62B600BF1B4B1B68194A934207D156
:100C3C00184BD3F8F04300F0C1F903469C4207D09F
:100C4C0000F052F9114B01221A7000F029F817E04C
:100C5C00114A104B1046043340F2EA32194606F0A2
:100C6C0077FB0C4BD3F8F0339AB20B4BA3F8E82379
:100C7C000A4B00221A70054B00221A70FFF798FFDE
:100C8C000C37BD4690BD00BF00F801088804002059
:100C9C00AA55AA5594000020A80A0020940400200C
:100CAC00B0B58CB000AF634B634A0433114640F2CD
:100CBC00EA32184606F04CFB5E4B604A1A6000F0B4
:100CCC007DF903465B4AC2F8F0335A4BD3F8F03344
:100CDC009AB2594BA3F8E823574BB3F8E823554B7A
:100CEC00A3F8EC2300F076F90346002B40F09E802D
:100CFC0072B600BF00F0CCF9F86103F03FFB0BE0DB
:100D0C006421F86900F0D6F90346002B04D003F0F7
:100D1C005BFB62B600BF8AE0494BDB6803F0010362
:100D2C00002BEDD10023BB60464B3B6101237B6163
:100D3C0000237B6000F0ACF9F8613A1D07F1080361
:100D4C001146184603F002FC034687F82F3097F83B
:100D5C002F30002B11D003F037FB62B600BF66E0DA
:100D6C004FF47A71F86900F0A5F90346002B04D012
:100D7C0003F02AFB62B600BF59E0314BDB6803F08D
:100D8C000103002BECD12B4BBB622E4B7B62FD2362
:100D9C00BB6100233B6234E000F07AF9F861796AB8
:100DAC00BB6A1B6800221C46154622462B460220B5
:100DBC0003F074FA034687F82F3097F82F30002B86
:100DCC0024D10BE04FF4FA71F86900F073F9034683
:100DDC00002B03D0012387F82F3005E0184BDB687C
:100DEC0003F00103002BEDD197F82F30002B0FD11E
:100DFC00BB6A0433BB627B6A04337B623B6A01339C
:100E0C003B623A6ABB699A42C6D302E000BF00E07B
:100E1C0000BF03F0D9FA62B600BF97F82F30002B51
:100E2C0005D100F007F9FFF7C3FE00E000BF303733
:100E3C00BD46B0BD94000020A80A0020AA55AA55B2
:100E4C000020024000F8010880B584B000AF244BAC
:100E5C00B3F89031FB81224BB3F89231BB81204B1C
:100E6C00B3F894317B811E4BB3F896313B811C4B0C
:100E7C009B89FB801A4BDB89BB80194B64221A803F
:100E8C00174B00225A80164B00229A80144B0022DA
:100E9C00DA80134B00221A81114AFB89A2F8903197
:100EAC000F4ABB89A2F892310D4A7B89A2F8943182
:100EBC000B4A3B89A2F89631094AFB889381084A70
:100ECC00BB88D381064B00225A81064B00221A7034
:100EDC0000F054FEFFF7E4FE00BF1037BD4680BDA6
:100EEC00A80A00209404002080B500AF40F2EA323A
:100EFC0000212E4806F000FA2C4B64221A802B4B52
:100F0C0000225A80294B00229A80284B0022DA803A
:100F1C00264B00221A81254B00225A81234B122288
:100F2C009A81224B0022DA81204B00229A821F4B9D
:100F3C000A22DA821D4B0A221A831C4B4FF47A7256
:100F4C00A3F89021194B0022A3F89221174B4FF4D0
:100F5C007A72A3F89421154B0022A3F89621144B16
:100F6C0000221A70134B114A0433114640F2EA3234
:100F7C00184606F0EDF90F4B0F4A1A6000F01EF8F8
:100F8C0003460C4AC2F8F0330A4BD3F8F0339AB24A
:100F9C00064BA3F8E823054BB3F8E823054BA3F85D
:100FAC00EC23FFF705FE00BF80BD00BFA80A0020A0
:100FBC009404002094000020AA55AA5580B500AFD7
:100FCC004FF4CC71024801F08DFC0346184680BDED
:100FDC009800002080B582B000AF64237B6000F0E5
:100FEC0057F8386008E07968386800F063F8034611
:100FFC00002B01D0012317E00D4BDB6803F001033C
:10100C00002BF0D10A4BDB6803F00403002B05D155
:10101C00074BDB6803F01003002B04D0044B1422A5
:10102C00DA60012300E0002318460837BD4680BD76
:10103C000020024080B5ADF57E7D00AF0E4BC7F8A9
:10104C00F4333B464FF47D72D7F8F413184606F090
:10105C007FF93B464FF47D721946084806F03CF97F
:10106C000346002B01D1012300E00023184607F5AD
:10107C007E77BD4680BD00BF00F8010894000020BB
:10108C0080B500AF00F004F80346184680BD0000A0
:10109C0080B483B000AF72B600BF054B1B687B6099
:1010AC0062B600BF7B6818460C37BD4680BC7047E3
:1010BC008C04002080B584B000AF78603960FFF7F5
:1010CC00E7FFF860FA687B689A420AD2FA687B6894
:1010DC00D31A013B3A689A4294BF01230023DBB236
:1010EC0008E0FA687B68D31A3A689A4294BF0123E5
:1010FC000023DBB218461037BD4680BD80B584B0E6
:10110C0000AF7860FFF7C4FFF86000E030BF79688B
:10111C00F868FFF7CFFF034683F00103DBB2002B27
:10112C00F4D100BF00BF1037BD4680BD80B500AF05
:10113C0001F09EFC00F054F800F04CFA00F01CFAA0
:10114C0000F0AAF800F0F4F800F048F900F094F977
:10115C0000F0E0F900F0C6FA01F0E2FCFFF73AFD0E
:10116C0000F00CFD184BDB8A002B02D1164B0A2227
:10117C00DA82154BDB8A1846FFF75AFBFFF7ECFABD
:10118C00124804F0C9FA4FF480721149114805F065
:10119C0003F9104B1B68DA680E4B1B6842F0100207
:1011AC00DA60FFF775FF03460B4A13600B4B1B7895
:1011BC00DBB2002B01D000F09FFC00F0A7FA01205D
:1011CC00FFF79CFFF2E700BFA80A002040090020AF
:1011DC00940E0020D00900209004002094100020D0
:1011EC0080B594B000AF07F12803282200211846DF
:1011FC0006F082F807F1140300221A605A609A6014
:10120C00DA601A613B1D00221A605A609A60DA603B
:10121C000123BB624FF48033FB6200233B63012349
:10122C00BB6302237B644FF48033BB644FF4002315
:10123C00FB6407F12803184603F0A0FC0346002BBF
:10124C0001D000F0B7FA0F237B610223BB610023AE
:10125C00FB614FF480633B6200237B6207F1140354
:10126C000121184603F00CFF0346002B01D000F0BF
:10127C00A1FA02237B604FF40043FB603B1D184630
:10128C0004F08EF80346002B01D000F093FA00BF57
:10129C005037BD4680BD000080B584B000AF3B1D0B
:1012AC0000221A605A609A601F4B204A1A601E4B2B
:1012BC0000229A601C4B01221A731B4B00221A75D8
:1012CC00194B4FF40022DA61174B00225A60164B6F
:1012DC0001221A61144801F031FC0346002B01D0A5
:1012EC0000F068FA05237B600123BB600523FB60DB
:1012FC003B1D19460C4802F0E1F80346002B01D0C7
:10130C0000F058FA094B9B68084A43F400039360B9
:10131C00054802F0CDFA0346002B01D000F04AFA42
:10132C0000BF1037BD4680BD84080020002401405A
:10133C0080B586B000AF07F1080300221A605A602E
:10134C009A60DA603B4600221A605A60224B4FF0DA
:10135C0080421A60204B2F225A601F4B00229A6049
:10136C001D4B40F6A972DA601B4B00221A611A4B16
:10137C0080229A61184804F07FF90346002B01D0B3
:10138C0000F018FA4FF48053BB6007F108031946BC
:10139C00114804F08BFC0346002B01D000F00AFA34
:1013AC0008210D4804F082FA0346002B01D000F00E
:1013BC0001FA00233B6000237B603B46194606483C
:1013CC0004F088FE0346002B01D000F0F3F900BFB7
:1013DC001837BD4680BD00BFF808002080B586B028
:1013EC0000AF07F1080300221A605A609A60DA60B5
:1013FC003B4600221A605A601D4B1E4A1A601C4B59
:10140C004BF67F325A601A4B00229A60184B092215
:10141C00DA60174B00221A61154B80229A6114482E
:10142C0004F02AF90346002B01D000F0C3F94FF465
:10143C008053BB6007F1080319460D4804F036FCD5
:10144C000346002B01D000F0B5F920233B6080232C
:10145C007B603B461946064804F03CFE0346002BD5
:10146C0001D000F0A7F900BF1837BD4680BD00BF02
:10147C00400900200004004080B586B000AF07F1A1
:10148C00080300221A605A609A60DA603B46002218
:10149C001A605A601D4B1E4A1A601C4B41F2BF2247
:1014AC005A601A4B00229A60184B0922DA60174BCB
:1014BC0000221A61154B80229A61144804F0DCF862
:1014CC000346002B01D000F075F94FF48053BB603C
:1014DC0007F1080319460D4804F0E8FB0346002BFE
:1014EC0001D000F067F900233B6000237B603B4692
:1014FC001946064804F0EEFD0346002B01D000F01F
:10150C0059F900BF1837BD4680BD00BF88090020BF
:10151C000008004080B500AF154B164A1A60144BFA
:10152C004FF416525A60124B00229A60104B002254
:10153C00DA600F4B00221A610D4B0C225A610C4BD6
:10154C0000229A610A4B0022DA61094804F032FE4B
:10155C000346002B01D000F02DF9054B1B68DA680F
:10156C00034B1B6842F01002DA6000BF80BD00BF65
:10157C00D00900200044004080B582B000AF144B6D
:10158C005B69134A43F001035361114B5B6903F030
:10159C0001037B607B68002205210B2002F03BFBE2
:1015AC000B2002F054FB00220121102002F033FB2F
:1015BC00102002F04CFB00220321112002F02BFB27
:1015CC00112002F044FB00BF0837BD4680BD00BFB0
:1015DC000010024080B588B000AF07F11003002264
:1015EC001A605A609A60DA603A4B9B69394A43F048
:1015FC0010039361374B9B6903F01003FB60FB688E
:10160C00344B9B69334A43F020039361314B9B6904
:10161C0003F02003BB60BB682E4B9B692D4A43F043
:10162C00040393612B4B9B6903F004037B607B6881
:10163C00284B9B69274A43F008039361254B9B6910
:10164C0003F008033B603B6800221021224803F0A2
:10165C007CFA4FF460433B6103237B6107F1100379
:10166C0019461E4803F01AF849F683733B610323AD
:10167C007B6107F110031946174803F00FF810238C
:10168C003B6101237B610023BB610223FB6107F1FA
:10169C0010031946104803F001F84FF2FF733B6139
:1016AC0003237B6107F1100319460D4802F0F6FF86
:1016BC004FF400633B6100237B610123BB6107F1A5
:1016CC0010031946064802F0E9FF00BF2037BD465B
:1016DC0080BD00BF00100240000801400010014016
:1016EC00000C014080B582B000AF074804F05EF8F2
:1016FC000346FB71FB79002B01D000F05BF800BFB7
:10170C000837BD4680BD00BF8809002080B500AFFA
:10171C004FF40061154803F001FA0346002B1FD16A
:10172C00134B1B7883F00103DBB2002B08D0104B5A
:10173C0001221A70FFF7ACFC03460E4A136012E04C
:10174C000C4B1B6840F6B8311846FFF7B3FC034648
:10175C00002B08D000F010F8054B00221A7002E0A4
:10176C00034B00221A7000BF80BD00BF000C01406B
:10177C00A40A0020A00A002080B500AFFFF764FB8C
:10178C0000BF80BD80B582B000AF78607B681B68FD
:10179C00B3F1804F01D100F08FF800BF0837BD4680
:1017AC0080BD80B483B000AF786000BF0C37BD46FD
:1017BC0080BC704780B400AF72B600BF00BFFDE7BD
:1017CC0080B582B000AF0346FB8000F061F8FB8867
:1017DC005A1E0A4B1B68DA62FB88013B1A46074B00
:1017EC00DA60064B1B6800225A624FF080430122DC
:1017FC005A6100BF0837BD4680BD00BFF808002005
:10180C0080B485B000AF7860114A7B68B2FBF3F30B
:10181C00FB60FB686E2202FB03F30E4AA2FB032360
:10182C005B09FB60FB68B3F5FA7F02D24FF4FA73E5
:10183C00FB60FB6844F62062934202D944F62063B5
:10184C00FB60FB689BB218461437BD4680BC7047E2
:10185C00A0764B021F85EB5180B584B000AF786049
:10186C007868FFF7CDFF0346FB81FB891846FFF72D
:10187C00A7FF064B1B686FF001021A610021034899
:10188C0004F06EF800BF1037BD4680BDF80800208C
:10189C0080B500AF0021074804F0B8F8054B1B6871
:1018AC0000225A62034B1B686FF001021A6100BFE1
:1018BC0080BD00BFF808002080B400AF0C4BDB6B80
:1018CC001B685B689BB2C3F580739AB2094B1A8094
:1018DC00084B1B88002B06D0064B1B88072B02D805
:1018EC00044B00221A8000BFBD4680BC704700BF6D
:1018FC00D00900209610002080B485B000AF0346BC
:10190C00FB80FB88B3F5FA7F01D9002322E0FB882A
:10191C00134AD35CFB73134B1B78DBB2022B0FD037
:10192C00022B16DC002B02D0012B02D011E000237D
:10193C0010E0FB7B5B10DBB203F00103DBB209E0D0
:10194C00FB7B03F00603002B14BF01230023DBB247
:10195C0000E0002318461437BD4680BC704700BF1A
:10196C00907300089404002080B483B000AF034649
:10197C00FB80FB8845F2AA52934204D047F2FF72D7
:10198C00934204D007E0084B01221A7007E0064B83
:10199C0002221A7003E0044B00221A7000BF00BF31
:1019AC000C37BD4680BC70479404002080B485B0D1
:1019BC0000AF03460A46FB801346BB80FB88FB81C5
:1019CC0043E0FB89B3F5FA7F46D8FB89254A32F808
:1019DC001320FB89244931F813309A4232D0FB8909
:1019EC00C72B06D9FB89CB2B03D8204B01221A70AD
:1019FC0020E0FB89042B05D9FB89092B0FD9FB8926
:101A0C000C2B0CD8FB89052B13D0FB89062B10D083
:101A1C00FB89072B0DD0164B01221A7009E0FB89AC
:101A2C00062B02D0FB89072B04D1114B01221A7013
:101A3C0000E000BFFA89FB890A4931F812100A4A02
:101A4C0022F81310FB890133FB81FA89F988BB88D2
:101A5C000B449A42B5DB00E000BF00BF1437BD4613
:101A6C0080BC7047A80A002098040020960400202F
:101A7C009504002080B500AF094B1B78002B04D0D7
:101A8C00FFF70EF9064B00221A70064B1B78002B41
:101A9C0004D0FFF705F9034B00221A7000BF80BD7C
:101AAC00950400209604002080B500AF064B01225F
:101ABC001A7001221021054803F047F80A2000F0A3
:101ACC0085FF00BF80BD00BF9510002000080140BD
:101ADC0080B500AF0A2000F079FF002210210448E5
:101AEC0003F033F8034B00221A7000BF80BD00BF17
:101AFC00000801409510002080B582B000AF1A4B51
:101B0C001B78DBB2002B2CD0184B1B7883F0010315
:101B1C00DBB2002B25D0164B1B6801211846FFF7B2
:101B2C00C9FA034683F00103DBB2002B18D10F4B2B
:101B3C0001221A700F4B1B88FB800B4B00221A7072
:101B4C00FB8819460C4800F0ADF8FFF793FFFFF740
:101B5C009FFA0346064A1360044B00221A7000E0F9
:101B6C0000BF0837BD4680BD94100020981000209F
:101B7C009C10002096100020940E0020B0B58AB066
:101B8C0000AF3B1D00221A605A609A60DA601A613D
:101B9C005A619A61404804F05DFB0C237B61002381
:101BAC00BB610023FB613D4B5B88013B032B1BD8C6
:101BBC0001A252F823F000BFD51B0008DD1B000862
:101BCC00E51B0008ED1B00084FF496437B620FE009
:101BDC004FF416437B620BE04FF461437B6207E0EA
:101BEC004FF4E1337B6203E04FF416537B6200BF8A
:101BFC007B6A7B60294B1B89012B03D14FF48053EB
:101C0C00BB6001E00023BB60244B9B88012B02D0FE
:101C1C00022B04D007E04FF4C0633B6106E04FF4A5
:101C2C0080633B6102E000233B6100BF1B4BDB8800
:101C3C00012B03D14FF40053FB6001E00023FB6048
:101C4C00154B1C1D3D1D0FCD0FC495E8070084E8F6
:101C5C000700114804F0AEFA0346002B01D0FFF741
:101C6C00A9FD786AFFF7CCFD03467B847B8C184674
:101C7C00FFF7A6FD4FF480720949074804F08CFB6E
:101C8C00054B1B68DA68044B1B6842F01002DA60E3
:101C9C0000BF2837BD46B0BDD0090020A80A0020DF
:101CAC00940E002080B584B000AF78600B467B802A
:101CBC007B681B78FB737B685B78BB73FB7B9AB28E
:101CCC00234B1B889A4202D0FB7B002B3AD17B889A
:101CDC00023B7A6813441B781BB21B021AB27B8836
:101CEC00013B79680B441B781BB213431BB2BB81BD
:101CFC007B88023B9BB21946786800F01FFE0346B6
:101D0C007B81BA897B899A421ED1BB7B102B0ED06A
:101D1C00102B10DC032B02D0062B04D00BE07868C0
:101D2C0000F018F811E0786800F0CCF80DE0786855
:101D3C0000F088F909E0B97BFB7B0122184600F022
:101D4C008BFA02E000BF00E000BF1037BD4680BD3B
:101D5C00A80A002080B588B000AF78607B681B783B
:101D6C00FB767B6802331B781BB21B021AB27B68B2
:101D7C0003331B781BB213431BB23B837B680433C6
:101D8C001B781BB21B021AB27B6805331B781BB283
:101D9C0013431BB2FB823A8BFB8A1344B3F5FB7FD4
:101DAC0006DBFB7E02220321184600F055FA7FE089
:101DBC003B8B642B0BD83A8BFB8A1344642B06DDCC
:101DCC00FEF758FE03461A463B4BA3F8C8203B8B44
:101DDC00652B0CD83A8BFB8A1344652B07DDFEF779
:101DEC005FFE38613B699AB2334BA3F8CA203B8B38
:101DFC000D2B0AD83A8BFB8A13440D2B05DDFEF70D
:101E0C001DFC03461A462C4B5A832C4AFB7E13703E
:101E1C002A4B03225A70FB8ADBB25B00DAB2274BE7
:101E2C009A700023FB611CE03A8BFB691344224A35
:101E3C0032F813301B0A9AB2FB695B000333D1B240
:101E4C001E4AD1543A8BFB6913441B4A32F81320B7
:101E5C00FB6902335B00D1B2184AD154FB690133E0
:101E6C00FB61FB8AFA699A42DEDBFB8A5B009BB260
:101E7C000333FB81FB891946104800F05FFD0346D4
:101E8C00BB81BB891B0A9AB2FB89D1B20B4AD154D4
:101E9C00FB890133BA89D1B2084AD154FFF704FE49
:101EAC00FB8902339BB21A460449054804F004FA34
:101EBC002037BD4680BD00BFA80A0020940F00202B
:101ECC00D009002080B586B000AF78607B681B78A5
:101EDC00FB757B6802331B781BB21B021AB27B6842
:101EEC0003331B781BB213431BB2BB827B680433D6
:101EFC001B781BB21B021AB27B6805331B781BB212
:101F0C0013431BB27B82BB8AB3F5FA7F06D9FB7DE8
:101F1C0002220621184600F09FF98AE0BB8A052BA5
:101F2C0007D17B8A1846FFF71FFD434B00225A81CD
:101F3C003FE0BB8A1846FFF7DFFC0346002B06D1B7
:101F4C00FB7D02220621184600F086F971E0BB8A5F
:101F5C00394A32F813303B82BB8A37497A8A21F8E6
:101F6C001320BB8A01211846FFF720FDBB8A0A2BE0
:101F7C0006D13A8A7B8A9A421BD0FEF7EDFB18E019
:101F8C00BB8A0B2B08D13A8A7B8A9A4211D07B8A66
:101F9C001846FEF74DFC0CE0BB8A0C2B09D17B8A52
:101FAC00142B06D9BB8A244A142122F813101423AB
:101FBC007B82224AFB7D1370204B06225A70BB8A0F
:101FCC001B0A9BB2DAB21D4B9A70BB8ADAB21B4B5E
:101FDC00DA70BB8A184A32F813301B0A9BB2DAB299
:101FEC00164B1A71BB8A144A32F81330DAB2134BFF
:101FFC005A710623FB81FB891946104800F09EFCA0
:10200C000346BB81BB891B0A9AB2FB89D1B20B4A2E
:10201C00D154FB890133BA89D1B2084AD154FFF7A4
:10202C0043FDFB8902339BB21A460449044804F071
:10203C0043F91837BD4680BDA80A0020940F002034
:10204C00D009002080B58AB000AF78607B681B781F
:10205C00FB767B6802331B781BB21B021AB27B68BF
:10206C0003331B781BB213431BB23B837B680433D3
:10207C001B781BB21B021AB27B6805331B781BB290
:10208C0013431BB2FB827B689B797B753A8BFB8A73
:10209C001344B3F5FB7F06DBFB7E022210211846AE
:1020AC0000F0DAF8CEE07A7DFB8A5B009A4206D02B
:1020BC00FB7E03221021184600F0CEF8C2E000236C
:1020CC007B6219E07B6A9AB23B8B13443B813B8960
:1020DC00052B0DD03B891846FFF70EFC0346002B51
:1020EC0007D1FB7E02221021184600F0B5F8A9E0BA
:1020FC0000BF7B6A01337B62FB8A7A6A9A42E1DB1E
:10210C0000233B622EE03B6A5B0007331A467B6878
:10211C0013441B781BB21B021AB23B6A04335B00DC
:10212C0019467B680B441B781BB213431BB2BB8153
:10213C003B6A9AB23B8B13447B817B89052B09D17B
:10214C00BB891846FFF710FC7B89404A002122F816
:10215C00131004E07B893D49BA8921F813203B6AAE
:10216C0001333B62FB8A3A6A9A42CCDBFA8A3B8B9C
:10217C0011461846FFF71AFC0023FB6124E0FB69AB
:10218C009AB23B8B1344FB81FB890A2B02D1FEF7DD
:10219C00E3FA16E0FB890B2B05D12C4BDB8A184696
:1021AC00FEF746FB0DE0FB890C2B0AD1FB89274A75
:1021BC0032F81330142B04D9FB89244A142122F849
:1021CC001310FB690133FB61FB8AFA699A42D6DB77
:1021DC001F4AFB7E13701E4B10225A703B8B1B0A3E
:1021EC009BB2DAB21A4B9A703B8BDAB2184BDA709C
:1021FC00FB8A1B0A9BB2DAB2154B1A71FB8ADAB254
:10220C00134B5A7106237B827B8A1946104800F0C7
:10221C0095FB03463B823B8A1B0A9AB27B8AD1B25E
:10222C000B4AD1547B8A01333A8AD1B2084AD15431
:10223C00FFF73AFC7B8A02339BB21A4604490548E5
:10224C0004F03AF82837BD4680BD00BFA80A00202C
:10225C00940F0020D009002080B584B000AF034655
:10226C00FB710B46BB7113467B71134AFB791370E0
:10227C00BB7963F07F03DAB20F4B5A700E4A7B794D
:10228C00937003210C4800F059FB0346FB81FB893A
:10229C001B0A9BB2DAB2084BDA70FB89DAB2064B36
:1022AC001A71FFF701FC05220349044804F004F8F5
:1022BC0000BF1037BD4680BD940F0020D009002010
:1022CC0080B582B000AF78607B681B68044A93428B
:1022DC0001D1FFF7FDFB00BF0837BD4680BD00BF35
:1022EC000044004080B582B000AF78607B681B680A
:1022FC000B4A93420FD1FFF7EBFB4FF48072094965
:10230C00786804F049F87B681B68DA687B681B689E
:10231C0042F01002DA6000BF0837BD4680BD00BF36
:10232C0000440040940E002080B485B000AF154BE3
:10233C009B69144A43F001039361124B9B6903F0B0
:10234C000103BB60BB680F4BDB690E4A43F0805343
:10235C00D3610C4BDB6903F080537B607B680A4BC9
:10236C005B68FB60FB6823F0E063FB60FB6843F099
:10237C000073FB60044AFB68536000BF1437BD4612
:10238C0080BC7047001002400000014080B588B04E
:10239C0000AF786007F1100300221A605A609A604F
:1023AC00DA607B681B682D4A934252D12C4B9B6997
:1023BC002B4A43F400739361294B9B6903F400731C
:1023CC00FB60FB68264B9B69254A43F00403936131
:1023DC00234B9B6903F00403BB60BB6860233B6128
:1023EC0003237B6107F1100319461E4802F056F9CE
:1023FC001D4B1E4A1A601C4B00225A601A4B0022BD
:10240C009A60194B8022DA60174B4FF480721A6174
:10241C00154B4FF480625A61134B20229A61124B78
:10242C004FF40052DA61104801F03AFC0346002BDD
:10243C0001D0FFF7BFF97B680B4A1A620A4A7B6826
:10244C00536200220721122001F0E5FB122001F05B
:10245C00FEFB00BF2037BD4680BD00BF00240140FD
:10246C000010024000080140B4080020080002409F
:10247C0080B586B000AF78607B681B68B3F1804F85
:10248C0014D1264BDB69254A43F00103D361234B5E
:10249C00DB6903F001037B617B69002202211C20B4
:1024AC0001F0B9FB1C2001F0D2FB32E07B681B6809
:1024BC001B4A934214D1194BDB69184A43F00203AF
:1024CC00D361164BDB6903F002033B613B690022CD
:1024DC0004211D2001F09FFB1D2001F0B8FB18E02A
:1024EC007B681B680F4A934213D10C4BDB690B4A78
:1024FC0043F00403D361094BDB6903F00403FB6075
:10250C00FB68002206211E2001F085FB1E2001F035
:10251C009EFB00BF1837BD4680BD00BF00100240B7
:10252C00000400400008004080B588B000AF78601F
:10253C0007F1100300221A605A609A60DA607B6817
:10254C001B68474A934240F08680464BDB69454AFC
:10255C0043F40033D361434BDB6903F40033FB607A
:10256C00FB68404B9B693F4A43F0040393613D4B2E
:10257C009B6903F00403BB60BB6804233B6102232B
:10258C007B610323FB6107F110031946364802F007
:10259C0085F808233B6100237B610023BB6107F1B5
:1025AC0010031946304802F079F8304B304A1A6063
:1025BC002E4B00225A602D4B00229A602B4B80220E
:1025CC00DA602A4B00221A61284B00225A61274BF1
:1025DC0000229A61254B4FF44052DA61234801F0F6
:1025EC005FFB0346002B01D0FFF7E4F87B681F4A22
:1025FC00DA631E4A7B6853621E4B1F4A1A601D4BDE
:10260C0010225A601B4B00229A601A4B8022DA600F
:10261C00184B00221A61174B00225A61154B0022ED
:10262C009A61144B4FF40052DA61124801F038FBF6
:10263C000346002B01D0FFF7BDF87B680D4A9A6367
:10264C000C4A7B68536200220221262001F0E3FA37
:10265C00262001F0FCFA00BF2037BD4680BD00BF2C
:10266C00004400400010024000080140180A0020FD
:10267C006C0002405C0A00208000024080B582B0F1
:10268C0000AF78607B681B680E4A934216D10E4BE4
:10269C00DB690D4A23F40033D3610C210B4802F0A3
:1026AC0081F97B68DB6B184601F054FB7B689B6BF4
:1026BC00184601F04FFB262001F0D7FA00BF08376F
:1026CC00BD4680BD0044004000100240000801409F
:1026DC0080B400AFBFF34F8F00BF064BDB6803F431
:1026EC00E0620449044B1343CB60BFF34F8F00BF30
:1026FC0000BFFDE700ED00E00400FA0580B400AF78
:10270C0000BFFDE780B500AFFFF7E2FF80B500AF7B
:10271C00FFF7DEFF80B500AFFFF7DAFF80B500AF43
:10272C00FFF7D6FF80B400AF00BFBD4680BC70473A
:10273C0080B400AF00BFBD4680BC704780B400AF12
:10274C0000BFBD4680BC704780B500AF00F0D6F925
:10275C0000BF80BD80B500AF024801F06BFC00BF2C
:10276C0080BD00BFB408002080B500AF024801F066
:10277C0061FC00BF80BD00BF180A002080B500AF0F
:10278C00024801F057FC00BF80BD00BF5C0A00206E
:10279C0080B500AF024800F0BFFD00BF80BD00BF98
:1027AC008408002080B500AF024803F08FF900BF09
:1027BC0080BD00BFF808002080B500AF094B1B6836
:1027CC001B6903F00103012B06D1064B1B686FF04C
:1027DC0001021A61FEF766F8024803F077F900BFB0
:1027EC0080BD00BF4009002080B500AF0B4B1B68BB
:1027FC001B6903F00103012B0BD1084B1B686FF015
:10280C0001021A61064B1B680133054A136000F084
:10281C0075F9024803F05AF900BF80BD8809002001
:10282C008C04002080B582B000AFFEF731FC03466B
:10283C00244A1360244B1B681B6803F01003102BF5
:10284C0038D100237B60204B1B681B687B601E4BC0
:10285C001B685B687B607B681B4BDB6B1B685B6876
:10286C009BB2C3F580739AB2184B1A80174B1B8816
:10287C00072B05D9164B01221A70FFF709F808E04F
:10288C00124B1B88002B04D00F4B5B681846FEF7CD
:10289C00E3FF0D4803F0A5FD4FF480720D490A4883
:1028AC0003F07AFD084B1B68DA68074B1B6842F093
:1028BC001002DA60044803F013FE00BF0837BD466F
:1028CC0080BD00BF90040020D0090020961000208D
:1028DC0094100020940E002080B400AF00BFBD46C1
:1028EC0080BC704780B487B000AF786039604FF01F
:1028FC00FF337B6100233B6112E07A683B69134430
:10290C001A787B69DBB25340FB737B691A0AFB7B39
:10291C00094951F8233053407B613B6901333B61DA
:10292C003A693B689A42E8D37B69DB4318461C370B
:10293C00BD4680BC704700BFA075000880B485B050
:10294C0000AF78600B467B804FF6FF73FB81002352
:10295C00BB8126E0BB897A6813441B781A46FB8935
:10296C005340FB810823BB6015E0FB8903F0010396
:10297C00002B0AD0FB895B08FB81FB8983F4BF43E6
:10298C0083F07E03DB43FB8102E0FB895B08FB8168
:10299C00BB68013BBB60BB68002BE6D1BB89013334
:1029AC00BB81BA897B889A42D4D3FB891B0A9BB220
:1029BC001AB2B7F90E301B021BB213431BB29BB2F7
:1029CC0018461437BD4680BC7047000080B584B0F3
:1029DC0000AF78607B68002B1DD07B6842F21072D0
:1029EC0093420AD97B6803F2E7330D4AA2FB032317
:1029FC009B091846FEF782FB0EE07A6813465B00D3
:102A0C0013441B01FB6000E000BFFB685A1EFA6018
:102A1C00002BF9D100E000BF1037BD4680BD00BFD0
:102A2C00D34D6210FFF758FF0B480C490C4A00239A
:102A3C0002E0D458C4500433C4188C42F9D3094A68
:102A4C00094C002301E013600432A242FBD304F0D2
:102A5C005BFCFEF76BFB70470000002014000020AD
:102A6C00D079000818000020C8100020FEE70000F4
:102A7C0080B500AF084B1B68074A43F01003136086
:102A8C00032001F0BDF80F2000F008F8FFF74CFC14
:102A9C000023184680BD00BF0020024080B582B0E4
:102AAC0000AF7860124B1A68124B1B7819464FF422
:102ABC007A73B3FBF1F3B2FBF3F3184601F0E3F8CE
:102ACC000346002B01D001230EE07B680F2B0AD8A4
:102ADC00002279684FF0FF3001F09DF8064A7B68C0
:102AEC001360002300E0012318460837BD4680BD63
:102AFC0008000020100000200C00002080B400AF63
:102B0C00054B1B781A46054B1B681344034A13608C
:102B1C0000BFBD4680BC704710000020A0100020F4
:102B2C0080B400AF044B1B68034A23F0020313600C
:102B3C0000BFBD4680BC704710E000E080B586B099
:102B4C0000AF78600023FB7500233B610023BB6062
:102B5C000023FB607B68002B01D10123BEE07B6866
:102B6C009B68002B7B689B6A002B09D17B68002239
:102B7C00DA627B68002283F824207868FFF706FC71
:102B8C00786800F0EDFD0346FB757B689B6A03F0EB
:102B9C001003002B40F09980FB7D002B40F09580BA
:102BAC007B689B6A23F4885323F0020343F00202F0
:102BBC007B689A627B685A687B68DB691A437B681E
:102BCC001B7B5B001343BA681343BB607B689B6839
:102BDC00B3F5807F03D07B689B68012B02D14FF447
:102BEC00807300E000233A6913433B617B681B7DD3
:102BFC00012B19D17B681B7B002B09D17B689B694E
:102C0C00013B5A033B69134343F400633B610BE004
:102C1C007B689B6A43F020027B689A627B68DB6A64
:102C2C0043F001027B68DA627B681B685B6823F403
:102C3C0069417B681B683A690A435A607B681B6868
:102C4C009A68284B13407A681268B9680B439360F2
:102C5C007B689B68B3F5807F03D07B689B68012BF6
:102C6C0004D17B681B69013B1B05FB607B681B68FF
:102C7C00DB6A23F470017B681B68FA680A43DA622A
:102C8C007B681B689A68184B1340BA689A420BD140
:102C9C007B680022DA627B689B6A23F0030343F0B3
:102CAC0001027B689A6218E07B689B6A23F012032E
:102CBC0043F010027B689A627B68DB6A43F0010286
:102CCC007B68DA620123FB7507E07B689B6A43F043
:102CDC0010027B689A620123FB75FB7D184618373E
:102CEC00BD4680BDFDF7E1FFFE0E1FFF80B584B031
:102CFC0000AF78600023FB737B6893F82430012BC2
:102D0C0001D1022398E07B68012283F824207868A3
:102D1C0000F0CCFC0346FB73FB7B002B40F0878060
:102D2C007B689B6A23F4407323F0010343F48072A5
:102D3C007B689A627B681B68414A934205D1414B80
:102D4C005B6803F47023002B15D17B689B6A23F41A
:102D5C0080127B689A627B681B685B6803F48063F3
:102D6C00002B26D07B689B6A23F4405343F480529B
:102D7C007B689A621DE07B689B6A43F480127B68D7
:102D8C009A627B681B682F4A934204D07B681B684D
:102D9C002B4A93420DD12B4B5B6803F48063002BC1
:102DAC0007D07B689B6A23F4405343F480527B68C2
:102DBC009A627B689B6A03F48053002B06D07B6875
:102DCC00DB6A23F006027B68DA6202E07B68002291
:102DDC00DA627B68002283F824207B681B686FF022
:102DEC0002021A607B681B689B6803F46023B3F5CE
:102DFC00602F13D17B681B68114A934205D1114B8C
:102E0C005B6803F47023002B08D17B681B689A68FD
:102E1C007B681B6842F4A0029A600CE07B681B681C
:102E2C009A687B681B6842F480129A6003E07B68A6
:102E3C00002283F82420FB7B18461037BD4680BD4A
:102E4C00002801400024014080B584B000AF7860B8
:102E5C000023FB737B6893F82430012B01D10223F0
:102E6C001AE07B68012283F82420786800F078FC53
:102E7C000346FB73FB7B002B09D17B689B6A23F415
:102E8C00885323F0010343F001027B689A627B684C
:102E9C00002283F82420FB7B18461037BD4680BDEA
:102EAC0090B587B000AF7860396000237B61002358
:102EBC00FB6000233B61FEF7E3F878617B681B68DD
:102ECC009B6803F48073002B0BD07B689B6A43F0E8
:102EDC0020027B689A627B68002283F824200123FD
:102EEC00D3E07B681B685B6803F48073002B31D1E3
:102EFC007B681B68DB6A03F47003002B2AD121E08A
:102F0C003B68B3F1FF3F1DD03B68002B07D0FEF7A9
:102F1C00B7F802467B69D31A3A689A4212D27B6898
:102F2C001B681B6803F00203002B0BD17B689B6AA8
:102F3C0043F004027B689A627B68002283F82420A9
:102F4C000323A2E07B681B681B6803F00203002BC1
:102F5C00D6D070E04F4B1C68022002F0D7FA034623
:102F6C00B4FBF3F27B681B6819694B4B0B40002BCD
:102F7C0018D17B681B68D968484B0B40002B11D1CA
:102F8C007B681B681969464B0B40002B08D17B688A
:102F9C001B68D968434B0B40002B01D1142320E054
:102FAC0029231EE07B681B6819693D4B0B40002BE5
:102FBC0006D17B681B68D9683A4B0B40002B0DD0AF
:102FCC007B681B681969384B0B40002B08D17B6858
:102FDC001B68D968344B0B40002B01D1542300E003
:102FEC00FC2302FB03F33B6121E03B68B3F1FF3FA1
:102FFC001AD03B68002B07D0FEF742F802467B69DB
:10300C00D31A3A689A420FD2FB683A699A420BD9A2
:10301C007B689B6A43F004027B689A627B6800229F
:10302C0083F82420032330E0FB680133FB60FB684A
:10303C003A699A42D9D87B681B686FF012021A6001
:10304C007B689B6A43F400727B689A627B681B689E
:10305C009B6803F46023B3F5602F15D17B681B7B51
:10306C00002B11D17B689B6A23F480727B689A6277
:10307C007B689B6A03F48053002B05D17B689B6AA9
:10308C0043F001027B689A62002318461C37BD4648
:10309C0090BD00BF080000202449922424499200CE
:1030AC0092244912922449004992240080B586B09A
:1030BC0000AFF860B9607A600023FB75FB681B6891
:1030CC00644A934204D0FB681B68634A934206D15E
:1030DC00604B5B6803F47023002B40F0B380FB68FB
:1030EC0093F82430012B01D10223AEE0FB680122BE
:1030FC0083F82420F86800F0D9FA0346FB75FB7DB1
:10310C00002B40F09A80FB689B6A23F4706323F0D9
:10311C00010343F48072FB689A62FB681B684E4A99
:10312C00934205D14B4B5B6803F47023002B15D1F4
:10313C00FB689B6A23F48012FB689A62FB681B682D
:10314C005B6803F48063002B26D0FB689B6A23F436
:10315C00405343F48052FB689A621DE0FB689B6A03
:10316C0043F48012FB689A62FB681B68394A9342ED
:10317C0004D0FB681B68384A93420DD1354B5B6811
:10318C0003F48063002B07D0FB689B6A23F4405345
:10319C0043F48052FB689A62FB689B6A03F4805389
:1031AC00002B06D0FB68DB6A23F00602FB68DA62B0
:1031BC0002E0FB680022DA62FB68002283F824201C
:1031CC00FB681B6A254A9A62FB681B6A244ADA620E
:1031DC00FB681B6A234A1A63FB681B686FF00202C8
:1031EC001A60FB681B689A68FB681B6842F4807263
:1031FC009A60FB68186AFB681B684C331946BA68FE
:10320C007B6800F003FEFB681B689B6803F460237B
:10321C00B3F5602F08D1FB681B689A68FB681B68C4
:10322C0042F4A0029A600FE0FB681B689A68FB6886
:10323C001B6842F480129A6006E0FB68002283F857
:10324C00242001E00123FB75FB7D18461837BD4691
:10325C0080BD00BF0024014000280140EF3700086A
:10326C006B3800088738000880B584B000AF7860F0
:10327C000023FB737B6893F82430012B01D10223CC
:10328C003AE07B68012283F82420786800F068FA21
:10329C000346FB73FB7B002B29D17B681B689A6868
:1032AC007B681B6822F480729A607B681B6A93F8B7
:1032BC002130DBB2022B1AD17B681B6A184600F056
:1032CC0005FE0346FB73FB7B002B0AD17B689B6AD4
:1032DC0023F4885323F0010343F001027B689A62C4
:1032EC0005E07B689B6A43F040027B689A627B68CE
:1032FC00002283F82420FB7B18461037BD4680BD86
:10330C0080B483B000AF78607B681B68DB6C1846B8
:10331C000C37BD4680BC704780B584B000AF786078
:10332C007B681B681B68FB607B681B685B68BB6009
:10333C00BB6803F02003002B3ED0FB6803F00203B4
:10334C00002B39D07B689B6A03F01003002B05D14E
:10335C007B689B6A43F400727B689A627B681B688B
:10336C009B6803F46023B3F5602F1DD17B681B7B36
:10337C00002B19D17B681B685A687B681B6822F08C
:10338C0020025A607B689B6A23F480727B689A6285
:10339C007B689B6A03F48053002B05D17B689B6A86
:1033AC0043F001027B689A627868FEF7FAF97B6851
:1033BC001B686FF012021A60BB6803F08003002BCD
:1033CC004DD0FB6803F00403002B48D07B689B6A4C
:1033DC0003F01003002B05D17B689B6A43F4005269
:1033EC007B689A627B681B689B6803F4E043B3F5C7
:1033FC00E04F12D07B681B685B6803F48063002B82
:10340C0025D17B681B689B6803F46023B3F5602FA0
:10341C001DD17B681B7B002B19D17B681B685A68FC
:10342C007B681B6822F080025A607B689B6A23F4DD
:10343C0080527B689A627B689B6A03F48073002BD2
:10344C0005D17B689B6A43F001027B689A627868BD
:10345C0000F0DCFA7B681B686FF00C021A60BB682A
:10346C0003F04003002B12D0FB6803F00103002B88
:10347C000DD07B689B6A43F480327B689A627868D3
:10348C0000F012F87B681B686FF001021A6000BF35
:10349C001037BD4680BD80B483B000AF786000BFEC
:1034AC000C37BD4680BC704780B483B000AF7860E9
:1034BC0000BF0C37BD4680BC7047000080B485B09F
:1034CC0000AF786039600023FB730023BB607B681E
:1034DC0093F82430012B01D10223DCE07B6801221C
:1034EC0083F824203B685B68062B1CD87B681B6820
:1034FC00596B3B685A6813469B001344053B1F22CB
:10350C0002FA03F3DB4319403B6818683B685A68BE
:10351C0013469B001344053B00FA03F27B681B68BF
:10352C000A435A633CE03B685B680C2B1CD87B68F5
:10353C001B68196B3B685A6813469B001344233B6A
:10354C001F2202FA03F3DB4319403B6818683B68FF
:10355C005A6813469B001344233B00FA03F27B6822
:10356C001B680A431A631BE07B681B68D96A3B68BB
:10357C005A6813469B001344413B1F2202FA03F383
:10358C00DB4319403B6818683B685A6813469B003C
:10359C001344413B00FA03F27B681B680A43DA626E
:1035AC003B681B68092B1CD97B681B68D9683B6876
:1035BC001A6813465B0013441E3B072202FA03F3FE
:1035CC00DB4319403B6898683B681A6813465B00FC
:1035DC0013441E3B00FA03F27B681B680A43DA6053
:1035EC0019E07B681B6819693B681A6813465B0015
:1035FC001344072202FA03F3DB4319403B68986833
:10360C003B681A6813465B00134400FA03F27B68AC
:10361C001B680A431A613B681B68102B03D03B687C
:10362C001B68112B32D17B681B681D4A934225D134
:10363C007B681B689B6803F40003002B26D17B6816
:10364C001B689A687B681B6842F400029A603B68AE
:10365C001B68102B1AD1134B1B68134AA2FB0323B4
:10366C009A0C13469B0013445B00BB6002E0BB68E2
:10367C00013BBB60BB68002BF9D107E07B689B6A00
:10368C0043F020027B689A620123FB737B68002263
:10369C0083F82420FB7B18461437BD4680BC70474A
:1036AC00002401400800002083DE1B4380B584B059
:1036BC0000AF78600023FB600023BB607B681B6855
:1036CC009B6803F00103012B40D07B681B689A6850
:1036DC007B681B6842F001029A601F4B1B681F4AF3
:1036EC00A2FB03239B0CBB6002E0BB68013BBB60ED
:1036FC00BB68002BF9D1FDF7C3FCF8601FE0FDF7A8
:10370C00BFFC0246FB68D31A022B18D97B681B68D6
:10371C009B6803F00103012B11D07B689B6A43F07B
:10372C0010027B689A627B68DB6A43F001027B685B
:10373C00DA627B68002283F82420012307E07B688F
:10374C001B689B6803F00103012BD8D1002318469A
:10375C001037BD4680BD00BF0800002083DE1B4330
:10376C0080B584B000AF78600023FB607B681B6879
:10377C009B6803F00103012B2ED17B681B689A68B0
:10378C007B681B6822F001029A60FDF779FCF860F7
:10379C001BE0FDF775FC0246FB68D31A022B14D90B
:1037AC007B681B689B6803F00103012B0DD17B68C0
:1037BC009B6A43F010027B689A627B68DB6A43F079
:1037CC0001027B68DA62012307E07B681B689B6857
:1037DC0003F00103012BDCD0002318461037BD4643
:1037EC0080BD80B584B000AF78607B685B6AFB609D
:1037FC00FB689B6A03F05003002B27D1FB689B6A84
:10380C0043F40072FB689A62FB681B689B6803F4C4
:10381C006023B3F5602F15D1FB681B7B002B11D1F6
:10382C00FB689B6A23F48072FB689A62FB689B6A54
:10383C0003F48053002B05D1FB689B6A43F0010213
:10384C00FB689A62F868FDF7ACFF04E0FB681B6A42
:10385C001B6B7868984700BF1037BD4680BD80B59C
:10386C0084B000AF78607B685B6AFB60F868FFF738
:10387C0012FE00BF1037BD4680BD80B584B000AFCE
:10388C0078607B685B6AFB60FB689B6A43F0400274
:10389C00FB689A62FB68DB6A43F00402FB68DA623D
:1038AC00F868FDF76BF900BF1037BD4680BD00000E
:1038BC0090B587B000AF78600023FB750023FB60E8
:1038CC007B6893F82430012B01D1022397E07B68AD
:1038DC00012283F824207868FFF742FF0346FB752A
:1038EC007868FFF7E3FE0346FB75FB7D002B40F089
:1038FC0081807B689B6A23F4885323F0020343F096
:10390C0002027B689A62404B1C68022001F0FEFDAB
:10391C000346B4FBF3F35B00FB6002E0FB68013B86
:10392C00FB60FB68002BF9D17B681B689A687B688D
:10393C001B6842F008029A60FDF7A2FB38611BE09D
:10394C00FDF79EFB02463B69D31A0A2B14D97B6800
:10395C001B689B6803F00803002B0DD07B689B6AE7
:10396C0023F0120343F010027B689A627B680022FA
:10397C0083F82420012342E07B681B689B6803F0DA
:10398C000803002BDCD17B681B689A687B681B687A
:10399C0042F004029A60FDF773FB38611BE0FDF7FF
:1039AC006FFB02463B69D31A0A2B14D97B681B6840
:1039BC009B6803F00403002B0DD07B689B6A23F0FB
:1039CC00120343F010027B689A627B68002283F832
:1039DC002420012313E07B681B689B6803F004031D
:1039EC00002BDCD17B689B6A23F0030343F00102BC
:1039FC007B689A627B68002283F82420FB7D184642
:103A0C001C37BD4690BD00BF0800002080B483B0B9
:103A1C0000AF786000BF0C37BD4680BC704700001B
:103A2C0080B485B000AF78607B6803F00703FB605F
:103A3C000C4BDB68BB60BA684FF6FF031340BB60EE
:103A4C00FB681A02BB68134343F0BF6343F40033B3
:103A5C00BB60044ABB68D36000BF1437BD4680BC52
:103A6C00704700BF00ED00E080B400AF044BDB6892
:103A7C001B0A03F007031846BD4680BC704700BF05
:103A8C0000ED00E080B483B000AF0346FB7197F902
:103A9C000730002B0BDBFB7903F01F02064997F96B
:103AAC0007305B09012000FA02F241F8232000BF25
:103ABC000C37BD4680BC704700E100E080B483B099
:103ACC0000AF0346FB7197F90730002B12DBFB7933
:103ADC0003F01F020A4997F907305B09012000FA2D
:103AEC0002F2203341F82320BFF34F8F00BFBFF306
:103AFC006F8F00BF00BF0C37BD4680BC704700BF46
:103B0C0000E100E080B483B000AF03463960FB7184
:103B1C0097F90730002B0ADB3B68DAB20C4997F9AE
:103B2C0007301201D2B20B4483F800230AE03B6841
:103B3C00DAB20849FB7903F00F03043B1201D2B24D
:103B4C000B441A7600BF0C37BD4680BC704700BFD3
:103B5C0000E100E000ED00E080B489B000AFF86057
:103B6C00B9607A60FB6803F00703FB61FB69C3F182
:103B7C000703042B28BF0423BB61FB690433062B0A
:103B8C0002D9FB69033B00E000237B614FF0FF325D
:103B9C00BB6902FA03F3DA43BB681A407B699A40AB
:103BAC004FF0FF317B6901FA03F3D9437B680B407B
:103BBC00134318462437BD4680BC704780B582B08D
:103BCC0000AF78607B68013BB3F1807F01D30123A8
:103BDC000FE00A4A7B68013B53600F214FF0FF3026
:103BEC00FFF790FF054B00229A60044B07221A60E6
:103BFC00002318460837BD4680BD00BF10E000E02A
:103C0C0080B582B000AF78607868FFF709FF00BF1D
:103C1C000837BD4680BD80B586B000AF0346B9609D
:103C2C007A60FB7300237B61FFF71EFF78617A6873
:103C3C00B9687869FFF790FF024697F90F30114683
:103C4C001846FFF75FFF00BF1837BD4680BD80B533
:103C5C0082B000AF0346FB7197F907301846FFF7A7
:103C6C0011FF00BF0837BD4680BD80B582B000AFE4
:103C7C000346FB7197F907301846FFF71FFF00BF8B
:103C8C000837BD4680BD80B582B000AF78607868DB
:103C9C00FFF794FF034618460837BD4680BD000069
:103CAC0080B485B000AF78600023FB607B68002B8C
:103CBC0001D1012343E07B681B681A46224B134455
:103CCC00224AA2FB03231B099A007B681A647B68B7
:103CDC001F4ADA637B68022283F821207B681B6809
:103CEC001B68FB60FB6823F47F5323F03003FB60FD
:103CFC007B685A687B689B681A437B68DB681A434D
:103D0C007B681B691A437B685B691A437B689B69F8
:103D1C001A437B68DB691343FA681343FB607B68C7
:103D2C001B68FA681A607B6800229A637B68012220
:103D3C0083F821207B68002283F82020002318467A
:103D4C001437BD4680BC7047F8FFFDBFCDCCCCCC42
:103D5C000000024080B483B000AF78607B68002B19
:103D6C0001D1012346E07B681B681A687B681B68DD
:103D7C0022F001021A607B681B6800221A607B68C3
:103D8C001B6800225A607B681B6800229A607B6863
:103D9C001B680022DA607B681B681A46184B1344B8
:103DAC00184AA2FB03231B099A007B681A647B68E0
:103DBC00154ADA637B681A6C7B68DB6B012101FAAC
:103DCC0002F25A607B6800229A627B680022DA62F7
:103DDC007B6800221A637B6800225A637B6800228E
:103DEC009A637B68002283F821207B68002283F889
:103DFC002020002318460C37BD4680BC704700BFFE
:103E0C00F8FFFDBFCDCCCCCC0000024080B586B015
:103E1C0000AFF860B9607A603B600023FB75FB680B
:103E2C0093F82030012B01D102234BE0FB680122D7
:103E3C0083F82020FB6893F82130DBB2012B3AD1B8
:103E4C00FB68022283F82120FB6800229A63FB683E
:103E5C001B681A68FB681B6822F001021A603B6839
:103E6C007A68B968F86800F0EBF9FB68DB6A002B3C
:103E7C0008D0FB681B681A68FB681B6842F00E02CE
:103E8C001A600FE0FB681B681A68FB681B6822F05D
:103E9C0004021A60FB681B681A68FB681B6842F016
:103EAC000A021A60FB681B681A68FB681B6842F000
:103EBC0001021A6005E0FB68002283F8202002232F
:103ECC00FB75FB7D18461837BD4680BD80B485B0A8
:103EDC0000AF78600023FB737B6893F82130DBB272
:103EEC00022B08D07B6804229A637B68002283F83B
:103EFC002020012320E07B681B681A687B681B6804
:103F0C0022F00E021A607B681B681A687B681B68BB
:103F1C0022F001021A607B681A6C7B68DB6B012152
:103F2C0001FA02F25A607B68012283F821207B6837
:103F3C00002283F82020FB7B18461437BD4680BC3A
:103F4C007047000080B584B000AF78600023FB732D
:103F5C007B6893F82130DBB2022B05D07B680422FE
:103F6C009A630123FB7351E07B681B681A687B68BA
:103F7C001B6822F00E021A607B681B681A687B684B
:103F8C001B6822F001021A607B681B68224A93426C
:103F9C0029D07B681B68214A934222D07B681B681E
:103FAC001F4A93421AD07B681B681E4A934212D058
:103FBC007B681B681C4A93420AD07B681B681B4AAF
:103FCC00934202D14FF480130EE04FF080730BE05C
:103FDC004FF4803308E04FF4805305E04FF48073C6
:103FEC0002E0102300E00123114A53607B68012298
:103FFC0083F821207B68002283F820207B685B6B90
:10400C00002B03D07B685B6B78689847FB7B18466A
:10401C001037BD4680BD00BF080002401C000240A6
:10402C003000024044000240580002406C00024044
:10403C000000024080B584B000AF78607B68DB6B19
:10404C001B68FB607B681B681B68BB607B681B6C18
:10405C0004229A40FB681340002B4FD0BB6803F03E
:10406C000403002B4AD07B681B681B6803F02003F9
:10407C00002B07D17B681B681A687B681B6822F0D1
:10408C0004021A607B681B68664A934229D07B68DD
:10409C001B68654A934222D07B681B68634A934233
:1040AC001AD07B681B68624A934212D07B681B68EB
:1040BC00604A93420AD07B681B685F4A934202D1E4
:1040CC004FF480030EE04FF080630BE04FF480233D
:1040DC0008E04FF4804305E04FF4806302E0402396
:1040EC0000E00423554A53607B68DB6A002B00F028
:1040FC0094807B68DB6A786898478EE07B681B6CE1
:10410C0002229A40FB681340002B56D0BB6803F088
:10411C000203002B51D07B681B681B6803F0200343
:10412C00002B0BD17B681B681A687B681B6822F01C
:10413C000A021A607B68012283F821207B681B68C5
:10414C00384A934229D07B681B68374A934222D065
:10415C007B681B68354A93421AD07B681B68344ACB
:10416C00934212D07B681B68324A93420AD07B6818
:10417C001B68314A934202D14FF400130EE04FF00A
:10418C0000730BE04FF4003308E04FF4005305E0EC
:10419C004FF4007302E0202300E00223274A53600F
:1041AC007B68002283F820207B689B6A002B34D02C
:1041BC007B689B6A786898472FE07B681B6C0822A9
:1041CC009A40FB681340002B28D0BB6803F008030F
:1041DC00002B23D07B681B681A687B681B6822F055
:1041EC000E021A607B681A6C7B68DB6B012101FA8A
:1041FC0002F25A607B6801229A637B68012283F881
:10420C0021207B68002283F820207B681B6B002B0D
:10421C0004D07B681B6B7868984700BF00BF1037D1
:10422C00BD4680BD080002401C0002403000024028
:10423C0044000240580002406C0002400000024062
:10424C0080B485B000AFF860B9607A603B60FB6801
:10425C001A6CFB68DB6B012101FA02F25A60FB68F5
:10426C001B683A685A60FB685B68102B08D1FB68C6
:10427C001B687A689A60FB681B68BA68DA6007E0AA
:10428C00FB681B68BA689A60FB681B687A68DA601E
:10429C0000BF1437BD4680BC70470000F0B587B036
:1042AC0000AFF860B960C7E900230123FB75002358
:1042BC00BB7500237B752F4B1B7E012B01D1022379
:1042CC0054E02C4B01221A764CF2503000F0A8F836
:1042DC000346FB75FB7D002B44D1FB68012B02D1FF
:1042EC0001237B7507E0FB68022B02D102237B754F
:1042FC0001E004237B750023BB752DE0BB7D5A00C8
:10430C00BB6802EB030CBB7D1901D7E90023C1F19B
:10431C002006A1F1200022FA01F403FA06F6344338
:10432C0023FA00F0044323FA01F5A3B219466046C0
:10433C0000F05AF84CF2503000F072F80346FB755E
:10434C000D4B1B690C4A23F001031361FB7D002B01
:10435C0007D1BB7D0133BB75BA7D7B7D9A42CDD332
:10436C0000E000BF034B00221A76FB7D18461C3779
:10437C00BD46F0BDA81000200020024080B483B0E0
:10438C0000AF0023FB710D4B1B6903F08003002B66
:10439C000DD00A4B0A4A5A60084B0A4A5A60074B1E
:1043AC001B6903F08003002B01D00123FB71FB7907
:1043BC0018460C37BD4680BC704700BF0020024039
:1043CC0023016745AB89EFCD80B400AF054B1B696A
:1043DC00044A43F08003136100231846BD4680BC99
:1043EC00704700BF0020024080B483B000AF7860FB
:1043FC000B467B80084B0022DA61084B1B69074A8D
:10440C0043F0010313617B687A881A8000BF0C3774
:10441C00BD4680BC704700BFA810002000200240A1
:10442C0080B584B000AF7860FCF72AFEF86010E02D
:10443C007B68B3F1FF3F0CD07B68002B07D0FCF7F7
:10444C001FFE0246FB68D31A7A689A4201D20323F4
:10445C0025E0154BDB6803F00103002BE8D1124B70
:10446C00DB6803F02003002B02D00F4B2022DA6014
:10447C000D4BDB6803F01003002B0BD10A4BDB69EF
:10448C0003F00103002B05D1074BDB6803F0040399
:10449C00002B03D000F00AF8012300E0002318469B
:1044AC001037BD4680BD00BF0020024080B483B0F1
:1044BC0000AF00237B60234BDB6803F01003002B61
:1044CC0009D0214BDB6943F002031F4AD3617B689F
:1044DC0043F010037B601B4BDB6803F00403002BE1
:1044EC0009D0194BDB6943F00103174AD3617B6890
:1044FC0043F004037B60134BDB6903F00103002BD7
:10450C000BD0114BDB6943F004030F4AD3610D4B05
:10451C00DB690C4A23F00103D3617B6840F2011282
:10452C00934206D1074BDB69064A23F00103D361A2
:10453C0002E0044A7B68D36000BF0C37BD4680BCE8
:10454C00704700BF00200240A810002080B584B046
:10455C0000AF786039600123FB730023BB602F4BE5
:10456C001B7E012B01D1022353E02C4B01221A7626
:10457C007B681B68022B16D14CF25030FFF750FFB2
:10458C000346002B41D1012000F04CF84CF2503086
:10459C00FFF746FF0346FB73214B1B69204A23F0B0
:1045AC000403136131E04CF25030FFF739FF03463E
:1045BC00002B2AD13B684FF0FF321A607B689B6856
:1045CC00BB6019E0B86800F049F84CF25030FFF7C6
:1045DC0027FF0346FB73124B1B69114A23F002039E
:1045EC001361FB7B002B03D03B68BA681A600CE0AC
:1045FC00BB6803F58063BB607B68DB689A027B68F1
:10460C009B681344BA689A42DCD3044B00221A7696
:10461C00FB7B18461037BD4680BD00BFA81000209C
:10462C000020024080B483B000AF7860094B0022B8
:10463C00DA61094B1B69084A43F004031361064B0A
:10464C001B69054A43F04003136100BF0C37BD469C
:10465C0080BC7047A81000200020024080B483B0BA
:10466C0000AF78600B4B0022DA610B4B1B690A4AD6
:10467C0043F002031361084A7B685361064B1B69C4
:10468C00054A43F04003136100BF0C37BD4680BCA4
:10469C00704700BFA81000200020024080B48BB0EF
:1046AC0000AF7860396000237B6200233B6269E1D4
:1046BC0001227B6A02FA03F3FB613B681B68FA690F
:1046CC001340BB61BA69FB699A4240F058813B6860
:1046DC005B689A4A93425ED0984A934275D8984A3E
:1046EC00934258D0964A93426FD8964A934252D0EE
:1046FC00944A934269D8944A93424CD0924A93423A
:10470C0063D8924A934246D0904A93425DD8122B7A
:10471C002AD8122B59D801A252F823F0A34700082B
:10472C007D4700088F470008D1470008D74700088D
:10473C00D7470008D7470008D7470008D7470008D5
:10474C00D7470008D7470008D7470008D7470008C5
:10475C00D7470008D7470008D7470008D7470008B5
:10476C008547000899470008794A934213D02CE0FA
:10477C003B68DB683B6229E03B68DB6804333B62E7
:10478C0024E03B68DB6808333B621FE03B68DB6876
:10479C000C333B621AE03B689B68002B02D104236C
:1047AC003B6213E03B689B68012B05D108233B62FD
:1047BC007B68FA691A6109E008233B627B68FA6935
:1047CC005A6103E000233B6200E000BFBB69FF2B92
:1047DC0001D87B6801E07B6804337B61BB69FF2BEC
:1047EC0002D87B6A9B0002E07B6A083B9B003B6122
:1047FC007B691A680F213B6901FA03F3DB431A400A
:10480C00396A3B6901FA03F31A437B691A603B6806
:10481C005B6803F08053002B00F0B1804D4B9B691B
:10482C004C4A43F0010393614A4B9B6903F001032B
:10483C00BB60BB68484A7B6A9B08023352F8233042
:10484C00FB607B6A03F003039B000F2202FA03F365
:10485C00DB43FA681340FB607B68404A934213D0F9
:10486C007B683F4A93420DD07B683E4A934207D007
:10487C007B683D4A934201D1032306E0042304E004
:10488C00022302E0012300E000237A6A02F0030213
:10489C0092009340FA681343FB602F497B6A9B0894
:1048AC000233FA6841F823203B685B6803F48013F9
:1048BC00002B06D02D4B9A682C49BB6913438B6097
:1048CC0006E02A4B9A68BB69DB43284913408B608E
:1048DC003B685B6803F40013002B06D0234BDA68AB
:1048EC002249BB691343CB6006E0204BDA68BB69F5
:1048FC00DB431E491340CB603B685B6803F4003319
:10490C00002B06D0194B5A681849BB6913434B60EE
:10491C0006E0164B5A68BB69DB43144913404B60E5
:10492C003B685B6803F48033002B21D00F4B1A6873
:10493C000E49BB6913430B6021E000BF000032102D
:10494C000000311000002210000021100000121095
:10495C00000011100010024000000140000801404E
:10496C00000C014000100140001401400004014003
:10497C000B4B1A68BB69DB43094913400B607B6A1C
:10498C0001337B623B681A687B6A22FA03F3002BC3
:10499C007FF48EAE00BF00BF2C37BD4680BC704785
:1049AC000004014080B489B000AF78603960002306
:1049BC00FB619AE00122FB6902FA03F33A681340A7
:1049CC00BB61BB69002B00F08D804E4AFB699B08D4
:1049DC00023352F823307B61FB6903F003039B0025
:1049EC000F2202FA03F37A6913407B617B68464A13
:1049FC00934213D07B68454A93420DD07B68444A5E
:104A0C00934207D07B68434A934201D1032306E0CB
:104A1C00042304E0022302E0012300E00023FA69EE
:104A2C0002F00302920093407A699A4232D13A4BD7
:104A3C001A68BB69DB43384913400B60364B5A6824
:104A4C00BB69DB43344913404B60334BDA68BB69B9
:104A5C00DB4331491340CB602F4B9A68BB69DB4376
:104A6C002D4913408B60FB6903F003039B000F225D
:104A7C0002FA03F37B61234AFB699B08023352F869
:104A8C0023107B69DA431F48FB699B080A400233F9
:104A9C0040F82320BB69FF2B01D87B6801E07B68C1
:104AAC0004333B61BB69FF2B02D8FB699B0002E01E
:104ABC00FB69083B9B00FB603B691A680F21FB6894
:104ACC0001FA03F3DB431A400421FB6801FA03F3F8
:104ADC001A433B691A607B68DA68BB69DB431A408E
:104AEC007B68DA60FB690133FB613A68FB6922FA87
:104AFC0003F3002B7FF45EAF00BF00BF2437BD462D
:104B0C0080BC70470000014000080140000C0140CF
:104B1C0000100140001401400004014080B485B035
:104B2C0000AF78600B467B807B689A687B8813406B
:104B3C00002B02D00123FB7301E00023FB73FB7BF2
:104B4C0018461437BD4680BC704780B483B000AFA4
:104B5C0078600B467B8013467B707B78002B03D0F0
:104B6C007A887B681A6103E07B881A047B681A6177
:104B7C0000BF0C37BD4680BC7047000080B586B0C6
:104B8C0000AF78607B68002B01D1012372E27B6857
:104B9C001B6803F00103002B00F08780924B5B68CD
:104BAC0003F00C03042B0CD08F4B5B6803F00C034D
:104BBC00082B12D18C4B5B6803F48033B3F5803F28
:104BCC000BD1894B1B6803F40033002B6CD07B6832
:104BDC005B68002B68D101234CE27B685B68B3F502
:104BEC00803F06D1804B1B687F4A43F480331360AF
:104BFC002EE07B685B68002B0CD17B4B1B687A4AE0
:104C0C0023F480331360784B1B68774A23F480239A
:104C1C0013601DE07B685B68B3F5A02F0CD1724B61
:104C2C001B68714A43F4802313606F4B1B686E4AF8
:104C3C0043F4803313600BE06B4B1B686A4A23F41C
:104C4C0080331360684B1B68674A23F4802313601E
:104C5C007B685B68002B13D0FCF712FA386108E014
:104C6C00FCF70EFA02463B69D31A642B01D90323D5
:104C7C0000E25D4B1B6803F40033002BF0D014E012
:104C8C00FCF7FEF9386108E0FCF7FAF902463B69DB
:104C9C00D31A642B01D90323ECE1534B1B6803F4A7
:104CAC000033002BF0D100E000BF7B681B6803F0E1
:104CBC000203002B63D04C4B5B6803F00C03002BFE
:104CCC000BD0494B5B6803F00C03082B1CD1464BF3
:104CDC005B6803F48033002B16D1434B1B6803F045
:104CEC000203002B05D07B681B69012B01D001232B
:104CFC00C0E13D4B1B6823F0F8027B685B69DB006D
:104D0C00394913430B603AE07B681B69002B20D0B8
:104D1C00364B01221A60FCF7B3F9386108E0FCF756
:104D2C00AFF902463B69D31A022B01D90323A1E147
:104D3C002D4B1B6803F00203002BF0D02A4B1B6891
:104D4C0023F0F8027B685B69DB00274913430B6097
:104D5C0015E0264B00221A60FCF792F9386108E046
:104D6C00FCF78EF902463B69D31A022B01D90323B7
:104D7C0080E11D4B1B6803F00203002BF0D17B6814
:104D8C001B6803F00803002B3AD07B689B69002B4F
:104D9C0019D0174B01221A60FCF772F9386108E040
:104DAC00FCF76EF902463B69D31A022B01D9032397
:104DBC0060E10D4B5B6A03F00203002BF0D0012085
:104DCC0000F0D0FA1CE00A4B00221A60FCF758F9EC
:104DDC0038610FE0FCF754F902463B69D31A022BF9
:104DEC0008D9032346E100BF0010024000004242F4
:104DFC0080044242924B5B6A03F00203002BE9D120
:104E0C007B681B6803F00403002B00F0A6800023D2
:104E1C00FB758B4BDB6903F08053002B0DD1884B5A
:104E2C00DB69874A43F08053D361854BDB6903F020
:104E3C008053BB60BB680123FB75824B1B6803F47A
:104E4C008073002B18D17F4B1B687E4A43F4807310
:104E5C001360FCF715F9386108E0FCF711F902460C
:104E6C003B69D31A642B01D9032303E1754B1B68EF
:104E7C0003F48073002BF0D07B68DB68012B06D128
:104E8C006F4B1B6A6E4A43F0010313622DE07B6883
:104E9C00DB68002B0CD16A4B1B6A694A23F00103B7
:104EAC001362674B1B6A664A23F0040313621CE00F
:104EBC007B68DB68052B0CD1614B1B6A604A43F0A5
:104ECC00040313625E4B1B6A5D4A43F001031362D9
:104EDC000BE05B4B1B6A5A4A23F001031362584BDD
:104EEC001B6A574A23F0040313627B68DB68002BB0
:104EFC0015D0FCF7C5F838610AE0FCF7C1F802469A
:104F0C003B69D31A41F28832934201D90323B1E0B1
:104F1C004B4B1B6A03F00203002BEED014E0FCF7A2
:104F2C00AFF838610AE0FCF7ABF802463B69D31ADC
:104F3C0041F28832934201D903239BE0404B1B6A18
:104F4C0003F00203002BEED1FB7D012B05D13C4B72
:104F5C00DB693B4A23F08053D3617B68DB69002B10
:104F6C0000F08780364B5B6803F00C03082B61D094
:104F7C007B68DB69022B46D1334B00221A60FCF7AD
:104F8C007FF8386108E0FCF77BF802463B69D31ADE
:104F9C00022B01D903236DE0294B1B6803F000732E
:104FAC00002BF0D17B681B6AB3F5803F08D1244BF2
:104FBC005B6823F400327B689B68214913434B6088
:104FCC001F4B5B6823F474127B68196A7B685B6AFD
:104FDC000B431B4913434B601B4B01221A60FCF71C
:104FEC004FF8386108E0FCF74BF802463B69D31ADE
:104FFC00022B01D903233DE0114B1B6803F0007316
:10500C00002BF0D035E0104B00221A60FCF738F87A
:10501C00386108E0FCF734F802463B69D31A022BDE
:10502C0001D9032326E0064B1B6803F00073002B09
:10503C00F0D11EE07B68DB69012B07D1012319E05D
:10504C000010024000700040600042420B4B5B6855
:10505C00FB60FB6803F480327B681B6A9A4206D1C2
:10506C00FB6803F470127B685B6A9A4201D00123DF
:10507C0000E0002318461837BD4680BD00100240E2
:10508C0080B584B000AF786039607B68002B01D1AB
:10509C000123D0E06A4B1B6803F007033A689A427D
:1050AC0010D9674B1B6823F0070265493B68134313
:1050BC000B60634B1B6803F007033A689A4201D0FC
:1050CC000123B8E07B681B6803F00203002B20D09F
:1050DC007B681B6803F00403002B05D0594B5B68FD
:1050EC00584A43F4E06353607B681B6803F0080381
:1050FC00002B05D0534B5B68524A43F4605353600A
:10510C00504B5B6823F0F0027B689B684D4913435E
:10511C004B607B681B6803F00103002B40D07B685D
:10512C005B68012B07D1474B1B6803F40033002B42
:10513C0015D101237FE07B685B68022B07D1414BC3
:10514C001B6803F00073002B09D1012373E03D4B66
:10515C001B6803F00203002B01D101236BE0394BD8
:10516C005B6823F003027B685B68364913434B6032
:10517C00FBF786FFF8600AE0FBF782FF0246FB684C
:10518C00D31A41F28832934201D9032353E02D4BB9
:10519C005B6803F00C027B685B689B009A42EBD166
:1051AC00274B1B6803F007033A689A4210D2244B32
:1051BC001B6823F0070222493B6813430B60204B0A
:1051CC001B6803F007033A689A4201D0012332E0CE
:1051DC007B681B6803F00403002B08D0194B5B6839
:1051EC0023F4E0627B68DB68164913434B607B68F1
:1051FC001B6803F00803002B09D0124B5B6823F4E7
:10520C0060527B681B69DB000E4913434B6000F056
:10521C0021F802460B4B5B681B0903F00F030A498C
:10522C00CB5C22FA03F3094A1360094B1B6818463E
:10523C00FDF734FC002318461037BD4680BD00BF77
:10524C000020024000100240887500080800002071
:10525C000C00002080B487B000AF0023FB6000235B
:10526C00BB6000237B6100237B6000233B611E4BF2
:10527C005B68FB60FB6803F00C03042B02D0082B6B
:10528C0003D027E0194B3B6127E0FB689B0C03F034
:10529C000F03174AD35C7B60FB6803F48033002B4D
:1052AC0010D0114B5B685B0C03F00103114AD35C0B
:1052BC00BB607B680D4A03FB02F2BB68B2FBF3F3E5
:1052CC007B6104E07B680C4A02FB03F37B617B6926
:1052DC003B6102E0094B3B6100BF3B6918461C3740
:1052EC00BD4680BC704700BF00100240001BB700D9
:1052FC00A0790008B079000800093D0000127A007E
:10530C0080B400AF024B1B681846BD4680BC70478A
:10531C000800002080B500AFFFF7F2FF0246054BF6
:10532C005B681B0A03F007030349CB5C22FA03F307
:10533C00184680BD001002409875000880B500AF7B
:10534C00FFF7DEFF0246054B5B68DB0A03F0070341
:10535C000349CB5C22FA03F3184680BD00100240CF
:10536C009875000880B485B000AF78600A4B1B6854
:10537C000A4AA2FB03235B0A7A6802FB03F3FB6075
:10538C0000BFFB685A1EFA60002BF9D100BF00BFAA
:10539C001437BD4680BC704708000020D34D621006
:1053AC0080B586B000AF786000233B610023FB60C2
:1053BC007B681B6803F00103002B7DD00023FB7579
:1053CC004F4BDB6903F08053002B0DD14C4BDB6949
:1053DC004B4A43F08053D361494BDB6903F0805354
:1053EC00BB60BB680123FB75464B1B6803F48073E1
:1053FC00002B18D1434B1B68424A43F48073136053
:10540C00FBF73EFE386108E0FBF73AFE02463B69CB
:10541C00D31A642B01D903236DE03A4B1B6803F4B8
:10542C008073002BF0D0364B1B6A03F44073FB6087
:10543C00FB68002B2ED07B685B6803F44073FA6822
:10544C009A4227D02E4B1B6A23F44073FB602E4BE1
:10545C0001221A602C4B00221A60294AFB68136245
:10546C00FB6803F00103002B14D0FBF709FE386135
:10547C000AE0FBF705FE02463B69D31A41F288327B
:10548C00934201D9032336E01D4B1B6A03F0020340
:10549C00002BEED01A4B1B6A23F440727B685B68BE
:1054AC00174913430B62FB7D012B05D1144BDB69B0
:1054BC00134A23F08053D3617B681B6803F002030B
:1054CC00002B08D00E4B5B6823F440427B689B6832
:1054DC000B4913434B607B681B6803F01003002BD4
:1054EC0008D0074B5B6823F480027B68DB680449B7
:1054FC0013434B60002318461837BD4680BD00BFD0
:10550C0000100240007000404004424280B588B058
:10551C0000AF786000237B610023FB6100233B61BB
:10552C000023FB600023BB617B68102B0AD07B68D7
:10553C00102B00F289807B68012B45D07B68022BF5
:10554C0074D081E0454B5B68FB60444B1B6803F0F7
:10555C008073002B7AD0FB689B0C03F00F03404A3E
:10556C00D35C3B61FB6803F48033002B15D03B4BC1
:10557C005B685B0C03F001033A4AD35C7B61FB680C
:10558C0003F48033002B0DD0374A7B69B2FBF3F266
:10559C003B6902FB03F3FB6104E03B69334A02FB0A
:1055AC0003F3FB612D4B5B6803F48003B3F5800FB1
:1055BC0002D1FB69BB6149E0FB695B002C4AA2FB91
:1055CC0003235B08BB6141E0244B1B6AFB60FB6857
:1055DC0003F44073B3F5807F08D1FB6803F002033A
:1055EC00002B03D04FF40043BB611EE0FB6803F4B7
:1055FC004073B3F5007F09D1184B5B6A03F00203CB
:10560C00002B03D049F64043BB610EE0FB6803F46A
:10561C004073B3F5407F1BD1104B1B6803F4003370
:10562C00002B15D0134BBB6112E011E0FFF786FE87
:10563C0002460A4B5B689B0B03F0030301335B00D0
:10564C00B2FBF3F3BB6104E000BF02E000BF00E07B
:10565C0000BFBB6918462037BD4680BD0010024014
:10566C00B4790008C4790008001BB70000093D009C
:10567C00ABAAAAAA366E010080B582B000AF7860E2
:10568C007B68002B01D1012341E07B6893F83D300E
:10569C00DBB2002B06D17B68002283F83C207868B3
:1056AC00FCF7E6FE7B68022283F83D207B681A68D3
:1056BC007B6804331946104600F0E4FB7B6801223A
:1056CC0083F846207B68012283F83E207B68012208
:1056DC0083F83F207B68012283F840207B680122FD
:1056EC0083F841207B68012283F842207B680122E9
:1056FC0083F843207B68012283F844207B680122D5
:10570C0083F845207B68012283F83D20002318464E
:10571C000837BD4680BD000080B485B000AF78600E
:10572C007B6893F83D30DBB2012B01D0012332E0D2
:10573C007B68022283F83D207B681B68184A9342E1
:10574C000ED07B681B68B3F1804F09D07B681B6857
:10575C00144A934204D07B681B68134A934211D1BC
:10576C007B681B689B6803F00703FB60FB68062BD8
:10577C0010D07B681B681A687B681B6842F00102BA
:10578C001A6007E07B681B681A687B681B6842F02C
:10579C0001021A60002318461437BD4680BC7047BE
:1057AC00002C0140000400400008004080B485B08B
:1057BC0000AF78607B6893F83D30DBB2012B01D0F1
:1057CC0001233AE07B68022283F83D207B681B684A
:1057DC00DA687B681B6842F00102DA607B681B6840
:1057EC00184A93420ED07B681B68B3F1804F09D0E6
:1057FC007B681B68144A934204D07B681B68134A6D
:10580C00934211D17B681B689B6803F00703FB6014
:10581C00FB68062B10D07B681B681A687B681B68BA
:10582C0042F001021A6007E07B681B681A687B680B
:10583C001B6842F001021A60002318461437BD465B
:10584C0080BC7047002C0140000400400008004060
:10585C0080B483B000AF78607B681B68DA687B68C3
:10586C001B6822F00102DA607B681B681A6A41F23D
:10587C0011131340002B0FD17B681B681A6A40F27E
:10588C0044431340002B07D17B681B681A687B6864
:10589C001B6822F001021A607B68012283F83D200C
:1058AC00002318460C37BD4680BC704780B582B0CB
:1058BC0000AF786039607B68002B01D1012341E097
:1058CC007B6893F83D30DBB2002B06D17B6800225D
:1058DC0083F83C20786800F039F87B68022283F862
:1058EC003D207B681A687B6804331946104600F02B
:1058FC00C9FA7B681B681A687B681B6822F008026F
:10590C001A607B681B6819687B681B683A680A43D5
:10591C001A607B68012283F846207B68012283F899
:10592C003E207B68012283F83F207B68012283F8AC
:10593C0042207B68012283F843207B68012283F894
:10594C003D20002318460837BD4680BD80B483B087
:10595C0000AF786000BF0C37BD4680BC70470000BC
:10596C0080B584B000AF786039607B6893F83E30C6
:10597C00FB737B6893F83F30BB737B6893F84230C2
:10598C007B737B6893F843303B73FB7B012B08D113
:10599C00BB7B012B05D17B7B012B02D13B7B012BEC
:1059AC0001D001232BE07B68022283F83E207B6828
:1059BC00022283F83F207B68022283F842207B6816
:1059CC00022283F843207B681B68012200211846C1
:1059DC0000F05CFB7B681B6801220421184600F078
:1059EC0055FB7B681B68084A934207D17B681B6890
:1059FC005A6C7B681B6842F400425A6400231846B8
:105A0C001037BD4680BD00BF002C014080B582B070
:105A1C0000AF786039607B681B6800220021184653
:105A2C0000F034FB7B681B6800220421184600F050
:105A3C002DFB7B681B68244A934217D17B681B683B
:105A4C001A6A41F211131340002B0FD17B681B68AB
:105A5C001A6A40F244431340002B07D17B681B6841
:105A6C005A6C7B681B6822F400425A647B681B6882
:105A7C001A6A41F211131340002B0FD17B681B687B
:105A8C001A6A40F244431340002B07D17B681B6811
:105A9C001A687B681B6822F001021A607B6801227D
:105AAC0083F83E207B68012283F83F207B6801222B
:105ABC0083F842207B68012283F843200023184698
:105ACC000837BD4680BD00BF002C014080B584B0B6
